:020000040800F2
:10000000680600202902000839050008FD040008E0
:100010003505000817040008590900080000000011
:10002000000000000000000000000000F9050008CA
:100030001B04000800000000B5050008E9060008E0
:10004000430200084302000843020008430200087C
:10005000430200084302000843020008430200086C
:10006000430200084302000843020008430200085C
:10007000430200084302000843020008430200084C
:10008000430200084302000843020008430200083C
:10009000430200084302000843020008430200082C
:1000A000430200084302000843020008430200081C
:1000B00043020008430200085507000843020008F5
:1000C00043020008430200084302000843020008FC
:1000D00043020008430200084302000843020008EC
:1000E00043020008430200084302000843020008DC
:1000F00043020008430200084302000843020008CC
:1001000043020008430200084302000843020008BB
:1001100043020008430200084302000843020008AB
:10012000430200084302000843020008430200089B
:10013000430200084302000843020008430200088B
:10014000430200084302000843020008430200087B
:10015000430200084302000843020008430200086B
:10016000430200084302000843020008430200085B
:10017000430200084302000843020008430200084B
:10018000430200084302000800F002F800F03CF8C7
:100190000AA090E8000C82448344AAF10107DA45E2
:1001A00001D100F031F8AFF2090EBAE80F0013F0F8
:1001B000010F18BFFB1A43F001031847DC070000CA
:1001C000FC070000103A24BF78C878C1FAD852075B
:1001D00024BF30C830C144BF04680C6070470000C1
:1001E0000023002400250026103A28BF78C1FBD840
:1001F000520728BF30C148BF0B6070471FB500F0E1
:10020000C5FB1FBD10B510BD00F09CF81146FFF7EF
:10021000F5FF00F0A3FB00F0BAF803B4FFF7F2FF1C
:1002200003BC00F081F800000948804709480047F6
:10023000FEE7FEE7FEE7FEE7FEE7FEE7FEE7FEE796
:10024000FEE7FEE704480549054A064B70470000F3
:10025000ED060008890100086800002068060020FB
:1002600068020020680200200EB5054614460E46BE
:1002700013A000F047F8284600F044F816A000F05C
:1002800041F8304600F03EF815A000F03BF80021A0
:100290008DF80B100A210DF10A008DF80A1008E004
:1002A00094FBF1F201FB124294FBF1F4303200F8BE
:1002B000012D002CF4DC00F025F800F018F8000007
:1002C0002A2A2A20617373657274696F6E206661D1
:1002D000696C65643A2000002C2066696C6520001A
:1002E0002C206C696E65200070477047704710B510
:1002F000002000F01FF8FFF785FFBDE81040012047
:1003000000F012B810B5044602E0641C00F004F8D6
:1003100020780028F9D110BD08B569468DF8000095
:100320000320ABBE08BD000001491820ABBEFEE7AC
:100330002600020010B500F039F8BDE8104000F0CA
:100340002FB87047754600F049F8AE46050069467B
:10035000534620F00700854618B020B5FFF772FF1E
:10036000BDE820404FF000064FF000074FF00008B6
:100370004FF0000B21F00701AC46ACE8C009ACE837
:10038000C009ACE8C009ACE8C0098D46704710B59B
:100390000446AFF300802046BDE81040FFF73DBFA4
:1003A000002801D0FFF7C0BF7047000010B5002142
:1003B00002A000F017F8012010BD0000534947418A
:1003C0004252543A2041626E6F726D616C207465C6
:1003D000726D696E6174696F6E000000004870474D
:1003E0000800002070B505460C460A2000E06D1C90
:1003F000FFF792FF35B128780028F8D102E0641C9D
:10040000FFF78AFF14B120780028F8D1BDE87040CA
:100410000A20FFF781BF00BFFEE77047F0B50A462C
:1004200000210023002400BF3DE0012505FA01F36F
:10043000156805EA03049C4234D105684F00032681
:10044000BE40B543056015794E00B540066835439A
:1004500005601579012D02D01579022D16D1856818
:100460004F000326BE40B543856055794E00B54028
:10047000866835438560456801268E40B5434560F2
:10048000456896798E40B6B235434560C5684F00E1
:100490000326BE40B543C560D5794E00B540C66859
:1004A0003543C560491C1029BFD3F0BDF0B500230A
:1004B00000244D07ED0E02FA05F3CE1000F12005E1
:1004C00055F826504E07F70E0F26BE40B543CF1005
:1004D00000F1200646F82750CE1000F1200555F80F
:1004E000265045EA0304CE1000F1200545F82640C9
:1004F000F0BD0AB1018300E04183704700BFFEE711
:100500001CB504460121802000F056F8009401201B
:100510008DF8040000208DF8060002208DF80500FB
:1005200000208DF8070069460148FFF777FF1CBDE2
:10053000001C024000BFFEE77047000070B50021BC
:1005400000230F22C4781CB3174C246804F4E06421
:10055000C4F5E064C4F30721C1F10404E3B20A4125
:1005600044789C40E1B28478144021430C07210E6A
:100570000E4C05786155047804F01F050124AC4049
:1005800005786D11AD0005F1E025C5F8004109E0E1
:10059000047804F01F050124AC40054D067876115F
:1005A00045F8264070BD00000CED00E000E400E0DE
:1005B00080E100E07047000029B1064A126802435A
:1005C000044B1A6004E0034A12688243014B1A602C
:1005D000704700003038024029B1064A12680243D1
:1005E000044B1A6004E0034A12688243014B1A600C
:1005F0007047000040380240704700000CB50020F2
:10060000019000903448006840F48030324908601E
:1006100000BF3148006800F4003000900198401C91
:100620000190009818B90198B0F5A04FF1D12A486F
:10063000006800F4003010B10120009001E00020BB
:1006400000900098012846D123484030006840F0CF
:1006500080502149403108602048006840F4404003
:100660001E4908601C48083000681B4908310860B2
:100670000846006840F4004008600846006840F4FE
:10068000A05008601648091F0860081F006840F065
:100690008070091F086000BF0F48006800F00070FC
:1006A0000028F9D040F205700E4908600A48083069
:1006B000006820F003000849083108600846006817
:1006C00040F00200086000BF03480830006800F0F6
:1006D0000C000828F8D10CBD003802400070004022
:1006E000062A4007003C02407047000010B515483C
:1006F000006840F47000134908601348006840F037
:1007000001001149086000200F49083108600E48B7
:1007100000680E4908400C4908600D48091D086032
:10072000081F006820F48020091F08600020064987
:100730000C310860FFF762FF4FF00060014980391B
:10074000086010BD88ED00E000380240FFFFF6FEB3
:100750001030002410B501210B4800F0A0F890B132
:100760000121094800F08CF80848006808B9012008
:1007700000E0002005490860084602780448018826
:100780000448FFF7B6FE10BD00080040000000203E
:1007900004000020001C02401FB50446002C04DDAC
:1007A00042F21170844200DA04E0142219A11DA063
:1007B000FFF75AFD00F040F842F2107090FBF4F0A1
:1007C000401E029042F2CF00ADF804000020ADF8C8
:1007D0000C00ADF806008DF80E0001A9154800F0D8
:1007E00079F801221146134800F06AF81E208DF8AE
:1007F000000000208DF801008DF8020001208DF826
:1008000003006846FFF79AFE01210A4800F03BF812
:100810001FBD00002E2E5C4253505C74696D6572E2
:10082000202E6300687A3E302626687A3C313030CC
:1008300030310000000800401CB501210820FFF7FE
:10084000BBFE01210420FFF7C7FE4FF4804000905B
:1008500002208DF8040003208DF8050000208DF89B
:10086000060001208DF8070069460448FFF7D6FD11
:1008700002220E210148FFF719FE1CBD000C0240A8
:10088000CA430282704721B1028842F0010202800D
:1008900004E002884FF6FE731A400280704730B5BC
:1008A0000246002000230024158A05EA01039589E9
:1008B00005EA010413B10CB1012000E0002030BDB5
:1008C0001AB183890B43838102E083898B4383813F
:1008D0007047000000220288184B98420ED0184B37
:1008E00098420BD0B0F1804F08D0164B984205D0FB
:1008F000154B984202D0154B984204D14FF68F7396
:100900001A404B881A43124B984207D0114B984219
:1009100004D04FF6FF431A400B891A4302804B68FC
:10092000C3620B880385054B984202D0044B984262
:1009300001D18B7A03860123838270470000014036
:10094000000401400004004000080040000C00408A
:10095000001000400014004000BFFEE70848008877
:10096000FFF7CEFD07480278054801880648FFF7E3
:10097000C0FD01242046FFF70FFF00BFFEE7000087
:100980000400002000000020001C02404FF04070D6
:10099000E1EE100A70470000B809000800000020CE
:1009A00008000000C4010008C00900080800002079
:1009B00060060000E00100080100000000100000D7
:040000050800018965
:00000001FF
